:100000000C9429060C9461060C9461060C94042B44
:100010000C9461060C9461060C9461060C946106C4
:100020000C9461060C9461060C947B110C943716A9
:100030000C94C7240C9461060C9461060C94610620
:100040000C9461060C9461060C9461060C94610694
:100050000C9461060C9454120C9461060C94610685
:100060000C9461060C9461060C9461060C94610674
:100070000C9461060C9461060C9461060C94610664
:100080000C9461060C9461060C9461060C94610654
:100090000C9461060C9461060C9461060C94610644
:1000A0000C9461060C9461060C9461060400160021
:1000B00007000900000014001A00080015001700CE
:1000C00000001C000D00500052001300000014003E
:1000D00016000600090017000000100004000600CA
:1000E0000000130006001000150000000D004F0076
:1000F000000010000F00000010004F0000000D0075
:100100000F000000100050005100000010005100CE
:100110000000100050000000A900AA000000AA0082
:10012000AE000000A900AE0000002C004C00000052
:100130001100510000000B00520000000C001200E2
:100140001300000018000C00120000001900050048
:10015000E10000000D000E000000220023000F004F
:1001600000000E0052000F000000110024002500C6
:1001700000000B00220000001E00220023000000EF
:1001800024002500200000002100220020000000A3
:100190001E001F00230000001E00260000001C009F
:1001A0001E001F0000002100130000001C002100A1
:1001B00000001E0022002A0000001F0021004C0049
:1001C000000021001F00230000001E002100270066
:1001D00000001E0022002600000024002200200053
:1001E000000011001000500000000B000E00000085
:1001F00018000E0052000000100050001200000015
:100200000D000E001200000018000C00520000004B
:100210001800510000001C0018000C0000000D0028
:10022000130000001C000D00000018000E002A0042
:1002300000000C000D004C0000000D000C005200EE
:10024000000018000D002C00000018000E005100E6
:10025000000010000E00120000002A00250000001F
:100260002A00240000002A00220000002A002100A9
:1002700000002A001F0000002A001E0000002A00C3
:10028000500000002A00100000002A000E000000AC
:100290002A000D0000002A000C0000002A001800AF
:1002A00000001100240000000B00210022000000CB
:1002B0000B00210000001C001E00000011001000B7
:1002C00000000B000D000E0000000B000D000000F0
:1002D0001C00180000001E00230000001F00230067
:1002E00000002100220023000000210023000F0055
:1002F000000022002300000023000F00000018006F
:10030000520000000C00520000000D000E005200D0
:1003100000000D0052000F0000000E00520000000F
:1003200052000F00000014001A0000001A0007001D
:100330000000070009000000E00014001A00080097
:1003400015001700E20004001600070009000A006B
:10035000E3001D001B00060019000500000000005E
:10036000000029003900E100A900130012000C0070
:1003700018001C00AA000F0052000E000D000B0018
:10038000AE004F00510050001000110000000000AE
:1003900000004C002C002A000100010001000100B7
:1003A0000100010001000100010001000100010045
:1003B0000100010001000100010001000000000037
:1003C00000001050010001000100010020001F008A
:1003D0001E00010001000100230022002100010095
:1003E000010001002600250024000100000000009B
:1003F00000000100270001000100010001000100D0
:1004000001000100010001000100010001000100E4
:1004100001000100010001000100010000000000D6
:10042000000010500100010001003D003C003B00B5
:100430003A0001000100410040003F003E00010081
:10044000010045004400430042000100000000009C
:10045000000001000100010000DA0281FFD9F1DB98
:1004600020A4A62EAF00A0C000A1C800AED580A8D1
:100470001FD300408D14200041646A7573740052CC
:1004800061697365004C6F776572004465666175DC
:100490006C74004C617965723A200080818283849B
:1004A00085868788898A8B8C8D8E8F909192939484
:1004B000A0A1A2A3A4A5A6A7A8A9AAABACADAEAFC4
:1004C000B0B1B2B3B4C0C1C2C3C4C5C6C7C8C9CA3B
:1004D000CBCCCDCECFD0D1D2D3D40000AF00AE00A4
:1004E000000000000000000000000000000000000C
:1004F00000000000000000000000000000000000FC
:100500000000007E0F00D4FFFFFFC700000078004E
:10051000000000000000002A2B280000000000005E
:100520000000000000000000000029000000002C76
:100530001E3420212224342627252E362D37382715
:100540001E1F202122232425263333362E37381F21
:100550000405060708090A0B0C0D0E0F10111213E3
:100560001415161718191A1B1C1D2F3130232D3581
:100570000405060708090A0B0C0D0E0F10111213C3
:100580001415161718191A1B1C1D2F3130354C4C19
:100590006F72656D20697073756D20646F6C6F721A
:1005A0002073697420616D6574200005010902A142
:1005B0000185020901A10005091901290815002575
:1005C0000195087501810205010930093115812560
:1005D0007F95027508810609381581257F9501757B
:1005E000088106050C0A38021581257F95017508DA
:1005F0008106C0C005010980A101850319012AB740
:1006000000150126B700950175108100C0050C0981
:1006100001A101850419012AA002150126A0029555
:100620000175108100C005010906A10185060507B5
:1006300019E029E7150025019508750181020507D4
:10064000190029EF1500250195F0750181020508B3
:10065000190129059505750191029501750391010F
:10066000C005010906A101050719E029E7150025C4
:100670000195087501810295017508810105071929
:100680000029FF150026FF00950675088100050862
:1006900019012905950575019102950175039101CF
:1006A000C009023B00020100A0FA09040000010396
:1006B0000101000921110100012240000705810309
:1006C00008000109040100010300000009211101D3
:1006D000000122B60007058203200001120100027A
:1006E00000000008534601000100010200010C0354
:1006F00043006F0072006E0065000000100366008A
:100700006F006F007300740061006E00000004034E
:1007100009040000000000003E5B4F5B3E003E6BA2
:100720004F6B3E001C3E7C3E1C00183C7E3C18007B
:100730001C577D571C001C5E7F5E1C0000183C1877
:100740000000FFE7C3E7FF00001824180000FFE7E0
:10075000DBE7FF0030483A060E00262979292600FB
:10076000407F05050700407F05253F005A3CE73CD8
:100770005A007F3E1C1C0800081C1C3E7F001422EF
:100780007F2214005F5F005F5F0006097F017F002A
:10079000006689956A0060606060600094A2FFA2B4
:1007A000940008047E04080010207E201000080831
:1007B0002A1C0800081C2A0808001E10101010002F
:1007C0000C1E0C1E0C0030383E383000060E3E0E5B
:1007D000060000000000000000005F0000000007AD
:1007E00000070000147F147F1400242A7F2A1200BF
:1007F000231308646200364956205000000807039E
:100800000000001C224100000041221C00002A1CA4
:100810007F1C2A0008083E08080000807030000095
:1008200008080808080000006060000020100804A4
:1008300002003E5149453E0000427F40000072499F
:10084000494946002141494D33001814127F1000D8
:100850002745454539003C4A4949310041211109A4
:100860000700364949493600464949291E0000001B
:100870001400000000403400000000081422410071
:100880001414141414000041221408000201590920
:1008900006003E415D594E007C1211127C007F49DA
:1008A000494936003E41414122007F4141413E00DD
:1008B0007F49494941007F09090901003E414151F1
:1008C00073007F0808087F0000417F41000020403E
:1008D000413F01007F08142241007F40404040001A
:1008E0007F021C027F007F0408107F003E414141CF
:1008F0003E007F09090906003E4151215E007F0943
:100900001929460026494949320003017F010300A5
:100910003F4040403F001F2040201F003F403840E4
:100920003F00631408146300030478040300615952
:10093000494D4300007F414141000204081020005E
:10094000004141417F000402010204004040404058
:1009500040000003070800002054547840007F281E
:1009600044443800384444442800384444287F0034
:1009700038545454180000087E0902001824241C1E
:1009800078007F080404780000447D400000204087
:10099000403D00007F102844000000417F400000DF
:1009A0007C04780478007C080404780038444444CB
:1009B00038007C1824241800182424187C007C0893
:1009C0000404080048545454240004043F44240000
:1009D0003C4040207C001C2040201C003C4030401B
:1009E0003C004428102844004C9090907C004464C3
:1009F000544C44000008364100000000770000001D
:100A00000041360800000201020402003C262326B1
:100A10003C0000000000000000000000000000009A
:100A20000000C0E0F0F8F81800C0F0FCFEFFFFFF87
:100A3000FFFFFFFF7E00000000000000000080C0FC
:100A4000E0E0E0E0E0E0E0E0C0800000000080C026
:100A5000E0E0E0E0E0E0E0E0C080000000E0E0C0D6
:100A6000C0E0E0E0E00000E0E0C0C0E0E0E0E0E0A6
:100A7000C0800000000080C0E0E0E0E0E0E0E0E0F6
:100A8000C080000000000000000000000000000026
:100A9000E0F0F0F0E0ECEEF7F37020007C7C7C7E80
:100AA000007E7E7E7F7F7F000080C0E07E5B4F5BAC
:100AB000FEC00000C000DCD7DEDEDED7DC00C000F8
:100AC0000000000000000000000000000000000026
:100AD0000000000000000000000000F8FCFEFFE045
:100AE00000FFFFFFFFFFFF80FFFFFFFFFFFFFFFF94
:100AF000FF1F0701000000000000000000FFFFFFD3
:100B00008100000000000081C3C3C30000FFFFFF9D
:100B10008100000000000081FFFFFF0000FFFFFFD9
:100B200001000000000000FFFFFF010000000001C5
:100B3000FFFFFF0000FFFFFF9D1C1C1C1C1C1C9DD9
:100B4000DFDFDF0000000000000000000000000008
:100B50000F1F3F7F7F7F7F7F3F1E0C001F1F1F3FA8
:100B6000003F3F3F7F7F7F00307B7F783020203009
:100B7000787F3B0003000F7F0F0F0F7F0F000300F4
:100B80000000000000000000000000000000000065
:100B90000000000000000000000000030F1F3F3FA6
:100BA0003F3F1F1F3F3F7F7F7F3F3F1F3F7F7F7F35
:100BB0007F7C7878381C0F000000000000000103E3
:100BC00007070707070707070301000000000103E5
:100BD00007070707070707070301000000070707C4
:100BE00000000000000000070707000000000000F0
:100BF00007070700000001030707070707070707A4
:100C000003010000000000000000000000000000E0
:100C100000000000000000000000000000000000D4
:100C200000000000000000000000000000000000C4
:100C300000000000000000000000000000000000B4
:100C400000000000000000000000000000000000A4
:100C5000000011241FBECFEFDAE0DEBFCDBF04B627
:100C600003FE18C08091480890914908A0914A0855
:100C7000B0914B088730904BA740B04B59F410927D
:100C800048081092490810924A0810924B08E0E078
:100C9000F8E3099514E0A0E0B1E0E0E7FFE502C069
:100CA00005900D92A434B107D9F728E0A4E4B4E08C
:100CB00001C01D92A834B207E1F70E94EE240C9403
:100CC000912F0C940000FC01AC014C5F5F4F8FEF43
:100CD00091E32191822728E030E087FF09C0880F47
:100CE000892721503109C9F7E417F50791F70895CD
:100CF000880FF7CFE8EDF0E080818E7F808310923F
:100D0000E2001092DA001092E100A0EEB0E08C91C7
:100D100081608C9380818F77808319BCA7EDB0E0D0
:100D20008C918E7F8C9380818F7E808310920B06B6
:100D300008952091E4003091E50095E6A901209105
:100D4000EC00822F817020FF06C08091E80080FFB8
:100D500006C080E008952091E80022FD1AC080912D
:100D60003006882389F0853089F08091EB0085FD7D
:100D70000FC02091E4003091E50042175307F9F2CB
:100D80009150E1F684E0089582E0089583E00895AB
:100D900081E00895EF92FF920F931F93CF937C0110
:100DA0008B010E949906C82F811117C08091E8001D
:100DB00085FD0BC08091E8008E778093E8000E944B
:100DC0009906882399F3C82F08C0F70181917F0104
:100DD0008093F1000150110949F78C2FCF911F9199
:100DE0000F91FF90EF9008958091320687FF13C016
:100DF0008091E80082FF06C08091E8008B778093A5
:100E0000E80004C0809130068111F2CF08958091EE
:100E100030068823D9F38091E80080FFF8CF8091D5
:100E2000E8008E77ECCF982F9093E900242F762F4F
:100E300050E0891731F07091EC002091ED00509155
:100E4000F00021FD07C09F5F973071F78093E900A4
:100E500081E008953091EB003E7F3093EB003091BC
:100E6000ED003D7F3093ED003091EB003160309329
:100E7000EB007093EC002093ED005093F000209174
:100E8000EE0027FDE0CF80E00895CF92DF92EF9251
:100E9000FF920F931F93CF93DF93C8EDD0E088812B
:100EA0008F7E8883E7EDF0E080818160808384E03D
:100EB00082BF81E080930B0688818E7F888302EE5B
:100EC00010E0F80110821092DA0081EEC82ED12CC9
:100ED000F601108288818F77888388818068888373
:100EE00088818F7D888319BC10923006109231065C
:100EF00010922F0610922E0690EEE92EF12CF7019B
:100F000080818B7F808388818160888342E060E07C
:100F100080E00E941307F60180818E7F8083F801B4
:100F2000808181608083808188608083F7018081F7
:100F30008E7F8083888180618883DF91CF911F912C
:100F40000F91FF90EF90DF90CF900895FC0180917A
:100F500038069091390686179707A0F0611571053C
:100F600029F49091E8009E779093E80090E0611555
:100F7000710551F4911108C08091E80082FF34C0DE
:100F800080E00895BC01F2CF809130068823C1F142
:100F90008530C1F18091E80083FD30C08091E80088
:100FA00082FDEACF8091E80080FFE1CF8091F300DD
:100FB0002091F200382F6115710519F028303105A4
:100FC00058F091E02830310509F090E02091E800D8
:100FD0002E772093E800CBCF81918093F100615070
:100FE00071092F5F3F4FE7CF80913006882341F092
:100FF000853041F08091E80083FFBECF81E0089505
:1010000082E0089583E00895089580910D06089583
:101010002FB7F89460910206709103068091040640
:10102000909105062FBF08952091B1032223C9F0A6
:101030002091060627FF15C0E62FE695E695E69572
:10104000EE31D8F4E80FF92FF11D677021E030E0A0
:1010500001C0220F6A95EAF7209582812823228316
:101060000895FC01329608962191621303C0DF01B6
:1010700011971C92E817F907B9F708952091B10369
:101080002223C1F02091060627FF14C0E62FE69523
:10109000E695E695EE31F8F4E80FF92FF11D67704B
:1010A00021E030E001C0220F6A95EAF78281822BAD
:1010B00082830895FC0132962FEF30E0419164174E
:1010C00051F02F3F19F4411101C0232F3F5F3630FB
:1010D000A9F72F3F09F40895820F911D27FD9A95D6
:1010E000FC01628308952091FF05309100062817C6
:1010F000390771F0909300068093FF05E091FD059C
:10110000F091FE05309721F00084F185E02D0994DF
:1011100008952091FB053091FC052817390771F0DF
:101120009093FC058093FB05E091FD05F091FE0591
:10113000309721F00680F781E02D09940895DC01B5
:101140006091F7058091F805962F891301C00895E5
:10115000292F30E0F901EE0FFF1FE151FA4F4081D6
:1011600051814A175B07A1F487E08A9FA0018B9FFA
:10117000500D1124445D5E4F81E0FA018483961383
:10118000E6CF2F5F3F4F237033272093F705089555
:101190002F5F3F4F922F9370D8CF10928B051092F4
:1011A0008A05ECE2F1E08581811102C01482168289
:1011B000379683E0E03BF807B1F70895409180054A
:1011C0008D3E59F48091810587FF0DC010928105F5
:1011D00041110BC01092780508C08E3E81F48091B9
:1011E000810518169CF3442381F08091820590912B
:1011F0008305892B09F05AC01092770508958F3E18
:1012000049F447FFF0CF109280058091810581114C
:10121000ECCFE0CF803F19F41416ACF3E4CF9091FB
:101220008205893F29F41916F4F610928205DBCF66
:101230008A3F19F497FFD7CFF8CF909183058B3F62
:1012400029F497FFD0CF10928305CDCF8C3F19F4AE
:101250001916CCF3C8CF9FE0980F983090F4815FB7
:10126000990B21E030E0B90102C0660F771F8A9523
:10127000E2F7CB01809590917F05892380937F05CC
:10128000B2CF8D3F31F4809179058E7F80937905BF
:10129000AACF8E3F21F4809179058D7FF7CF8F3FC4
:1012A00009F0A1CF809179058B7FF0CF08958091CF
:1012B000790580FD16C081FD16C082FD16C08091A3
:1012C00077058823A1F0883280F428E0829FC0014E
:1012D000112468E270E00E94402C862F672B39F0C1
:1012E000089582E0089584E0089588E0089581E0FB
:1012F00008958091790580FD16C081FD16C082FD9C
:1013000016C080917805882381F0883280F420E12E
:10131000829FC001112468E270E00E94402C862F59
:10132000672B39F0089584E0089588E0089580E1FE
:10133000089581E008958D3E31F40E9479098195E8
:101340008093810508958E3E19F40E947909F8CFA3
:101350008F3E31F40E94790981958093800508952C
:10136000803F19F40E947909F8CF893F29F40E943F
:1013700057098093820508958A3F21F40E945709F6
:101380008195F7CF8B3F31F40E9457098195809367
:10139000830508958C3F19F40E945709F8CF9FE008
:1013A000980F983070F4815F990B21E030E001C014
:1013B000220F8A95EAF780917F05822B80937F0523
:1013C00008958D3F31F4809179058160809379058E
:1013D00008958E3F21F4809179058260F7CF8F3F89
:1013E000B9F7809179058460F1CF80E00895F89491
:1013F000E82FE295EF70F0E031A1282F2F7081E007
:1014000090E001C0880F2A95EAF7982F90959323D2
:1014100091A392A1892B82A37894089590910606B6
:1014200092FF06C0282F28712830F9F4877F846046
:1014300093FF06C0282F28712831F1F4877E84613C
:101440002091070620FF06C0382F38713830D9F4B4
:10145000877F816021FF06C0282F28712831D1F4B1
:10146000877E816194FD877E0895282F2471243022
:10147000F9F68B7F8860DCCF282F2471243101F7A7
:101480008B7E8861DDCF382F3171313019F78E7F37
:101490008860E0CF282F2171213121F78E7E88616D
:1014A000E1CFCF93DF93EC0182389105A9F1D8F514
:1014B0008133910509F496C048F58932910509F404
:1014C0008AC08A9709F495C0C11521E5D20708F0B2
:1014D000BCC0C11530E5D30708F014C1C83ED10522
:1014E00008F09CC0C13ED10560F5C83AD10508F0AE
:1014F00087C0C53AD10508F0FDC0C130D10509F15A
:101500002097F9F0C430D105E0F440C0853391054F
:1015100009F45AC0C997C1F680910606837089F014
:10152000C0EED0E00EC0833E910599F170F4803E8C
:10153000910501F1823E910539F68091060682FD02
:1015400021C0CE01DF91CF910895863E910561F1D2
:10155000873E910571F1843E910509F0B5CF8091E8
:10156000070681FFEECF80910606C7EED0E084FD2E
:101570000DC0E7CF8091060680FD12C1909107064D
:1015800090FFDFCFC3EED0E084FFDBCFD0E0C0E040
:10159000D8CF8091060682FD06C19091070690FD86
:1015A000BFCF84FFCECFF2CF8091060683FDDDCF83
:1015B000C8CF8091060683FDF9C09091070691FF80
:1015C000F0CFC4EED0E0BDCF8091060685FFB9CF45
:1015D000C9E2D0E0B6CF8091060685FFB2CFC5E361
:1015E000D0E0AFCF8091060686FFABCFCAE2D0E055
:1015F000A8CF8091060686FFA4CFC1E3D0E0A1CF9B
:10160000CF3BD10518F6C85AD0E0CC0FDD1FCE5F16
:10161000DB4F0990D881C02DD46493CFC11540E22F
:10162000D40758F4C11581E0D80708F08ACFCD3E21
:10163000D10508F4ABCFD06584CFC11590E4D907AC
:1016400008F4A4CFDF70D06A7CCFC11525E5D2079E
:1016500000F5C11534E5D30708F08AC0C11543E58C
:10166000D40708F071C0C11582E5D80708F467C037
:10167000CE018370992721E030E002C0220F331F92
:101680008A95E2F7C695C69580E2C89FE0011124CD
:1016900052C0C11599E5D907A8F4C11528E5D207AC
:1016A00008F06BC0C11536E5D30708F06FCF8C2F5B
:1016B0000E940E0AC82FD0E0DC2FCC27CC27DF7188
:1016C000D0623FCFC1154AE5D40708F45BC0CE0114
:1016D00090568115904208F059CF8D2F8F710E943E
:1016E0000E0A90E0982F882788279F719C012C2B49
:1016F000E901E6CFC55AD0E0C150DC4FC881D0E047
:10170000D0641FCFCE01E4E096958795EA95E1F786
:1017100083702C2F26952695237040E2249F9001FC
:101720001124382B8C2F8370C1E0D0E002C0CC0F85
:10173000DD1F8A95E2F7C22BD32BDC6802CFDC2FAA
:10174000CC27C16FD06AFDCECE018370992721E0EE
:1017500030E002C0220F331F8A95E2F7C695C69586
:1017600090E2C99FE0011124C22BD32BDA68E9CEA5
:10177000DC2FCC27C46FD06AE4CEDC2FCC27C06F1F
:10178000D06ADFCE8C2F8F700E940E0A34E0D6957F
:10179000C7953A95E1F7CF709C2FEC01D069D1CE77
:1017A000C9E3D0E0CECEC2EED0E0CBCEC6EED0E0E4
:1017B000C8CE8091F10481111092F10408958095B2
:1017C0009091F00498239093F00408958091CE04B2
:1017D00090918D04981301C008958F5F8770FACFA0
:1017E000AF92BF92CF92DF92EF92FF920F931F932F
:1017F000CF93DF93C0903605D0903705E090380541
:10180000F09039054091F2045091F3046091F40492
:101810007091F504C42AD52AE62AF72ACFE1D0E050
:10182000082F10E026E0929F000D111D112490E377
:10183000A92EBC2ED701C6010C2E04C0B695A795C3
:10184000979587950A94D2F780FD0FC0219788F766
:10185000B12C8B2DDF91CF911F910F91FF90EF90C5
:10186000DF90CF90BF90AF900895AC9EF001AD9EF9
:10187000F00D1124E00FF11FEE0FFF1FE85CFC4F8D
:10188000859194910E94510A019701F3E2CFCF9381
:10189000DF93EC010E94F00BEC2FF0E096E0D99F73
:1018A000E00DF11D112490E3899FE00DF11D11243D
:1018B000EE0FFF1FE85CFC4F85919491DF91CF9173
:1018C0000C94510AE92FEE0FE90FEE0F8E0F982FAF
:1018D000977086958695869525E0829FF001112464
:1018E000E959FB4F50E040E080E0219130E0092EC3
:1018F00002C0369527950A94E2F721703327042E0B
:1019000001C0220F0A94EAF7822B4F5F5F4F4530E8
:10191000510559F70895E92FEE0FE90FEE0F8E0FDD
:10192000982F977041E001C0440F9A95EAF7869589
:101930008695869595E0899FF0011124E959FB4F22
:1019400030E020E070E05191DF011197CB01022ED1
:1019500002C0969587950A94E2F781708195852754
:10196000842385278C932F5F3F4F2530310559F70E
:101970000895FC0186819781009791F00E94510A99
:1019800092959F709630B9F080F4925F9F7092307C
:1019900080F4803F19F058F4883E58F481E00895AF
:1019A000808191810E94470CEBCF9A5FEFCF843FFB
:1019B000A9F380E00895883E88F3813FD1F7EECF08
:1019C0001F93CF93DF9300D000D00F92CDB7DEB737
:1019D0009C01FC0186819781009751F585E0DE012D
:1019E000119601900D928A95E1F7F9012281898182
:1019F0009A81222331F1662321F10E94F00B182FE6
:101A0000682F89819A810E948B0C8A81E981F0E09C
:101A100096E0899FE00DF11D112480E3189FE00DF1
:101A2000F11D1124EE0FFF1FE85CFC4F859194918E
:101A30000F900F900F900F900F90DF91CF911F910B
:101A400008950E94620C182FE0CFCF93DF93682F88
:101A500081E06A3019F06D3029F480E0DF91CF9198
:101A60000C94B40D809146089091470826E0FC0143
:101A7000A0E4B8E001900D922A95E1F7603E08F4E9
:101A80005AC026E0FC0111922A95E9F7C091460858
:101A9000D091470846E050E0BE0180E498E00E9403
:101AA0009A2C9E0120543640892B41F1C90145E012
:101AB000969587954A95E1F741E050E0BA0102C05A
:101AC000660F771F8A95E2F7CB0160913E06709111
:101AD0003F06862B972BB9016B5F7F4FE5E076952C
:101AE0006795EA95E1F702C0440F551F6A95E2F742
:101AF000842B952B90933F0680933E062A5F3F4FA1
:101B000040913D06642F70E0C9010E94202C481BC3
:101B1000463010F4240F311D211572E0370710F004
:101B200030E020E0205C394F30934708209346088E
:101B3000DF91CF910895F6E06F9FB00111246E5EA2
:101B4000784F46E050E00E94912CA0CFCF93DF93D6
:101B5000EC01FE018491811103C0DF91CF910895C2
:101B60000E94250D2196F5CFCF93382FE09146089E
:101B7000F0914708E054F64020913D06622F70E056
:101B8000CF010E94202C281B822F332361F066E0B6
:101B90000E94342CC82FC15010F4CF91089580E2D8
:101BA0000E94250DF8CF9F01280F311D21153240CD
:101BB00018F080E0F0E0E0E08E0F9F2F911D805C38
:101BC000994F9093470880934608E7CF8091F0049F
:101BD00090918C05892B809346049091F104992370
:101BE000A1F0892B809346048091B1038823D9F119
:101BF0008091060687FF37C08EE1E8E4F4E090E0CC
:101C0000815098F591110E94D90B40E250E060EDAF
:101C100074E086E494E00E949A2C892B59F180E2CA
:101C2000E6E4F4E0A0EDB4E001900D928A95E1F7CE
:101C3000E091FD05F091FE053097E1F08091B10350
:101C4000882359F08091060687FF07C080914604DB
:101C50008093470486E0809346040280F381E02D60
:101C600086E494E0099486E0C8CF2191222341F2D2
:101C70009F5FC6CF0895882321F00E94DF0B0C944C
:101C8000E60D0895882339F09091F004982B9093F5
:101C9000F0040C94E60D0895CF92DF92EF92FF923C
:101CA0000F931F93CF93DF936C017B0164E670E089
:101CB00088E70E945B29EC0197FD12C010E000E06C
:101CC000F601E00FF11F849164E670E00E94D529CF
:101CD000EC01892B29F40F5F1F4F0E151F0581F7AB
:101CE0000E94582ACE01DF91CF911F910F91FF9052
:101CF000EF90DF90CF9008958091880590918905AD
:101D0000911103C091E089270895882369F062E06A
:101D100070E08DED94E00E944C0E892B19F08091BB
:101D2000880508951092880580918805EBCFCF93A0
:101D3000C0918805809189058823D1F00E94080808
:101D4000605A75418F4F9F4F60938405709385054E
:101D50008093860590938705C11108C062E070E00A
:101D60008BED94E00E944C0E892B29F0C0918805E0
:101D70008C2FCF91089581E080938805F7CF8093D1
:101D8000080670930A066093090680913006843035
:101D900001F582E08093E9008FEF9091E800815097
:101DA00095FD06C095ED9A95F1F700008111F5CFEC
:101DB0008091E80085FF0DC050E040E063E070E0F6
:101DC00088E096E00E94CA068091E8008E778093B2
:101DD000E8000895BC0184E00C94BF0EBC0183E0D0
:101DE0000C94BF0E9C0182E08093E9009FEF8091EC
:101DF000E800915085FD06C085ED8A95F1F7000059
:101E00009111F5CF8091E80085FF0CC050E040E0D3
:101E100066E070E0C9010E94CA068091E8008E77F2
:101E20008093E8000895CF93DF93EC018091B10394
:101E30008823B1F18091060687FF32C060E282E01C
:101E40008093E9008FEF9091E800815095FD06C0E6
:101E500095ED9A95F1F700008111F5CF8091E8009A
:101E600085FF1BC08091B10370E050E040E081111C
:101E700004C050E040E068E070E0CE010E94CA0675
:101E80008091E8008E778093E80080E2FE01AEE06A
:101E9000B6E001900D928A95E1F7DF91CF91089518
:101EA00068E081E0CDCF81E08093E00080E2809324
:101EB000D8001092C9008FE19EE40197F1F700C0AD
:101EC000000087E090EBDC0180934808909349087C
:101ED000A0934A08B0934B0888E19CE00FB6F894B1
:101EE000A895809360000FBE90936000FFCFAF92E3
:101EF000BF92CF92DF92EF92FF920F931F93CF93F7
:101F0000DF937C015B016A018091160501E010E01E
:101F10008A3010F40AE010E0C1E0D0E0F894B50196
:101F2000C701F60109957894811104C021960C1718
:101F30001D075CF4DF91CF911F910F91FF90EF90FF
:101F4000DF90CF90BF90AF900895CC9F9001CD9F30
:101F5000300D300D112490E080E045E34A95F1F713
:101F60000000019682179307C1F7D8CF8091000532
:101F7000811110C08091D80080618093D8008AE1DF
:101F80008A95F1F700C08091D90080FF0AC081E0F6
:101F90008093000581E090910005913009F080E088
:101FA000089582E0809300050E947A061092300620
:101FB000F1CF0E94B60F882351F0E091FD05F0911A
:101FC000FE05309721F00190F081E02D099480E02A
:101FD0000895CF9384E090E00E944F2FC82F82E2B3
:101FE00090E00E944F2F982F8C2FCF9108950F9340
:101FF0001F93CF93DF9300D000D0CDB7DEB74091D1
:1020000012055091130560911405709115052FB7B5
:10201000F8948091020690910306A0910406B09175
:1020200005062FBF841B950BA60BB70B11E084365A
:102030009105A105B10590F10E94B60F8823C1F169
:102040000E9408086E5F7F4F8F4F9F4F69837A838E
:102050008B839C838091110190911201875F9A4F2D
:102060004091100150E04530510510F044E050E03F
:10207000BE016F5F7F4F0E94A72C82E090E00E941C
:10208000AA2B182F882351F00E940808609312058C
:10209000709313058093140590931505812F0F906D
:1020A0000F900F900F90DF91CF911F910F91089596
:1020B0000E94080800911705109118052091190534
:1020C00030911A05600F711F821F931FBBCFEF92D3
:1020D000FF921F93CF93DF9300D000D00F92CDB724
:1020E000DEB77B0190E080E00E94AA2B182F8823A6
:1020F00009F487C04091030150E04115510511F0EA
:1021000041E050E06091040170910501675F7A4FF2
:10211000CE0105960E94A72C409105055091060519
:1021200060910705709108052FB7F8948091020619
:1021300090910306A0910406B09105062FBF841B61
:10214000950BA60BB70B84369105A105B10540F49C
:102150008AE095E00E9463069D81891709F451C0C9
:1021600081E090E00E94AA2B81111AC010E08091BA
:10217000010590910205A0910305B0910405F701B6
:1021800080839183A283B383812F0F900F900F9050
:102190000F900F90DF91CF911F91FF90EF900895D6
:1021A00040910B0150E04530510510F044E050E003
:1021B00060910C0170910D01675F7A4FCE0101961D
:1021C0000E94A72C8AE095E00E9463069D818913F6
:1021D000CDCF0E9408086093050570930605809393
:1021E00007059093080589819A81AB81BC81809312
:1021F000010590930205A0930305B093040511E037
:10220000B6CF80910A0590910B05A0910C05B09175
:102210000D0589839A83AB83BC831111E4CFA7CFCB
:1022200069EE7EEF90E080E00E947B2F60E082E02C
:1022300090E00E945D2F60E083E090E00E945D2FBF
:102240001092F2041092F3041092F4041092F50428
:1022500060E084E090E00E945D2F60E082E290E028
:102260000E945D2F60E085E090E00E945D2F60E0BD
:1022700086E090E00E945D2F6FEF87E090E00E9483
:102280005D2F40E050E0BA0188E090E00E946F2F9F
:1022900060E08DE090E00E945D2F40E050E0BA01E8
:1022A00088E190E00E946F2F60E087E190E00E945B
:1022B0005D2F40E050E0BA018CE190E00E946F2F6A
:1022C00070E060E080E290E00E947B2F40E050E010
:1022D000BA0188E190E00E946F2F40E050E0BA011F
:1022E0008FE090E00E946F2F40E050E0BA0183E160
:1022F00090E00C946F2F1F920F920FB60F92112443
:102300002F933F934F935F936F937F938F939F93FD
:10231000AF93BF93EF93FF938091E10082FF09C0D9
:102320008091E20082FF05C08091E1008B7F809365
:10233000E1008091DA0080FF24C08091D80080FF06
:1023400020C08091DA008E7F8093DA008091D900DE
:1023500080FF9DC080E189BD82E189BD09B400FE96
:10236000FDCF81E08093300680910B06811109C07A
:102370000E947A060E9445078091E2008460809363
:10238000E2008091E10080FF17C08091E20080FFB1
:1023900013C08091E2008E7F8093E2008091E20082
:1023A00080618093E2008091D80080628093D800A1
:1023B00019BC85E0809330068091E10084FF2BC03A
:1023C0008091E20084FF27C080E189BD82E189BD60
:1023D00089B5982F917080FFFBCF8091D8008F7DB9
:1023E0008093D8008091E1008F7E8093E1008091FE
:1023F000E2008F7E8093E2008091E2008160809312
:10240000E20080913106882309F447C084E080937C
:102410003006809130068091E10083FF27C08091D3
:10242000E20083FF23C08091E100877F8093E10079
:1024300082E080933006109231068091E1008E7F19
:102440008093E1008091E2008E7F8093E200809192
:10245000E20080618093E20042E060E080E00E9460
:1024600013078091F00088608093F000FF91EF9156
:10247000BF91AF919F918F917F916F915F914F919C
:102480003F912F910F900FBE0F901F90189519BC80
:102490001092300610920B0674CF8091E30087FDF6
:1024A00093E090933006B5CF78941F921FB61F9299
:1024B00011248F939F93AF93BF93809102069091C5
:1024C0000306A0910406B09105060196A11DB11D59
:1024D0008093020690930306A0930406B09305062A
:1024E000BF91AF919F918F911F901FBE1F90189524
:1024F0009C014FB7F8948091020690910306A09139
:102500000406B09105064FBF821B930B08952FB7A9
:10251000F8948091020690910306A0910406B09170
:1025200005062FBF08950E9487129C019091800597
:1025300080918105982B21F030937D0520937C05B7
:102540009091820580918305982B21F030937B0533
:1025500020937A05E091FD05F091FE05309749F052
:1025600082E080937E050480F581E02D8EE795E082
:102570000994089590E080E00E94890890E080E04E
:102580000E94730810928C050E94E60D86E0EEE72B
:10259000F5E0DF011D928A95E9F710927805109217
:1025A0007705109279050C94931260933605709319
:1025B000370580933805909339050C94BA120F9320
:1025C0001F9341E050E060E070E004C0440F551FED
:1025D000661F771F8A95D2F7CB01BA016095709577
:1025E000809590950091360510913705209138051A
:1025F0003091390560237123822393231F910F911A
:102600000C94D5129091CF04809589238093CF04A8
:10261000282F277091F4282F082E000C330B9217C7
:10262000130659F09091070692FD07C08595859590
:1026300085950E94DF121092CF040895CF93C09128
:102640000706C2FB992790F9981799F080FBC2F909
:10265000C09307066091060684E090E00E945D2F1B
:102660006C2F82E290E00E945D2F82E0CF910C946B
:102670000213CF9108950F931F9341E050E060E063
:1026800070E004C0440F551F661F771F8A95D2F76C
:102690008091360590913705A0913805B0913905A4
:1026A0008A019B01082B192B2A2B3B2BC901B8014E
:1026B0001F910F910C94D5126093F2047093F30460
:1026C0008093F4049093F5040C94BA121092F004E1
:1026D0008091B103E8E4F4E0882359F08091060684
:1026E00087FF07C08EE1DF011D928A95E9F70C9400
:1026F000BA1286E0F8CF1F93CF93DF93CDB7DEB742
:10270000AA970FB6F894DEBF0FBECDBF82E396E066
:102710002091F100FC012193CF01F6E08A339F075D
:10272000B9F780913306833009F470C0B8F4813072
:1027300009F447C0823009F4B1C08091E80083FFFA
:102740007EC280913206909133069A3008F077C2AB
:10275000E92FF0E0ED56F04D0C94542C8A3009F43A
:102760008CC08B3009F46FC0893039F78091320604
:10277000813219F780913606909137060297E8F674
:102780008091E800877F8093E8008091E80082FFD5
:1027900038C09091F3008091F200029731F480915B
:1027A000F100813011F0863021F48091F1008093A6
:1027B0000D068091E8008B778093E8000E94F40674
:1027C000BCCF80913206813A09F0B7CF8091E80002
:1027D000877F8093E8008091360690913706892B99
:1027E00061F460E28EE096E070E00E94A6078091BE
:1027F000E8008B778093E800A0CF60E090E080E075
:10280000F3CF809130068111C0CF97CF80913206EF
:10281000813A09F092CF8091360690913706892B44
:1028200009F08BCF8091E800877F8093E80080914A
:10283000E80080FFFCCF8091B1038093F10080918C
:10284000E8008E77B9CF80913206813209F075CFDA
:102850008091360690913706892B09F06ECF8091D2
:10286000E800877F8093E8000E94F4068091340698
:102870008093B1030E94661360CF8091320681324B
:1028800009F05BCF8091E800877F8093E8000E9489
:10289000F4068091350680930C064FCF8091320666
:1028A000813A09F04ACF8091E800877F8093E80061
:1028B0008091E80080FFFCCF80910C06BECF80386D
:1028C00099F0823809F0BBC1809136068F7087304D
:1028D00008F0B5C18093E9008091EB0085FB882763
:1028E00080F91092E90006C080912E0690912F0683
:1028F000911182609091E800977F9093E800809317
:10290000F1001092F1008091E8008E7794C1882345
:1029100009F482C1823009F092C18091340681119C
:1029200085C1809136068F702FEF280F263008F072
:1029300086C18093E9002091EB0020FF77C193309E
:1029400031F48091EB0080628093EB006FC1909135
:10295000EB0090619093EB0021E030E001C0220F8A
:102960008A95EAF72093EA001092EA008091EB0042
:102970008860EACF811163C1109134061F7780917E
:10298000E3008078812B8093E3008091E800877FCB
:102990008093E8000E94F4068091E80080FFFCCF5D
:1029A0008091E30080688093E30082E0111183E06E
:1029B0008093300644C18058823008F040C1809135
:1029C0003406909135068C3D23E09207A1F583E013
:1029D0008A838AE289834FB7F894DE01139620E058
:1029E0003EE051E2E32FF0E050935700E49120FFE6
:1029F00003C0E295EF703F5FEF708E2F90E0EA30FA
:102A0000C0F0C7968D939D932F5F243159F74FBF28
:102A10008091E800877F8093E8006AE270E0CE0151
:102A200001960E94A6078091E8008B778093E800CA
:102A300006C1C096E7CF4091360650913706292F40
:102A400033272330310509F444C078F521303105AE
:102A500009F46FC08BE390E0E1EAF6E02230310543
:102A600009F0EDC02091E800277F2093E800209135
:102A70003806309139068217930708F49C0140E02C
:102A80002115310509F064C0411162C08091E80050
:102A900082FDC9CF80913006882329F2853019F252
:102AA0008091E80083FFF2CFBECF21323105A9F13A
:102AB0002232310509F0C3C04115510509F443C064
:102AC0004130510509F0BBC086EB90E0EBEAF5E040
:102AD000C9CF992781309105C1F0009759F002972D
:102AE00009F0ADC0EEEEF6E0E4918E2F90E0EEEE50
:102AF000F6E007C0EEE0F7E0E4918E2F90E0EEE024
:102B0000F7E0009709F49BC0ADCFECEFF6E0E4915D
:102B10008E2F90E0ECEFF6E0F4CF4115510571F007
:102B20004130510509F08BC089E090E0ECECF6E013
:102B300099CF82E190E0ECEDF6E094CF89E090E06F
:102B4000E3EBF6E08FCF80E490E0E1E6F6E08ACFB9
:102B500080913006882309F466CF853009F463CF6D
:102B60008091E80083FD5FCF8091E80082FD8ECFE9
:102B70008091E80080FF84CF9091F3008091F20073
:102B80002115310519F08830910550F041E0089782
:102B900009F040E08091E8008E778093E80070CFE4
:102BA00044914093F1003196215031090196E8CFCC
:102BB000803809F044C08091E800877F8093E80066
:102BC000809131068093F1009ECE811138C0109122
:102BD00034061230A0F58091E800877F8093E800EA
:102BE000109331060E94F406112311F084E005C011
:102BF0008091E30087FDFACF81E08093300642E0C8
:102C000061EC81E00E94130742E261EC82E00E94E5
:102C100013078091300613C080913406813079F417
:102C200081E0933009F080E080932F061092E90054
:102C30008091E800877F8093E8000E94F4068091ED
:102C4000E80083FF0AC08091E800877F8093E80056
:102C50008091EB0080628093EB00AA960FB6F89407
:102C6000DEBF0FBECDBFDF91CF911F9108951F92A0
:102C70000F920FB60F9211242F933F934F935F93B0
:102C80006F937F938F939F93AF93BF93CF93DF9374
:102C9000EF93FF93D091E900DF708091EC00C82F93
:102CA000C17080FDC0E81092E9008091F000877F3C
:102CB0008093F00078940E947B131092E900809139
:102CC000F00088608093F000CD2BCF70C093E900B6
:102CD000FF91EF91DF91CF91BF91AF919F918F9134
:102CE0007F916F915F914F913F912F910F900FBE08
:102CF0000F901F901895882379F19CEF980F913AC7
:102D000038F4682F86E494E00E9414080C94E60DD1
:102D100090E2980F983050F4877091E001C0990FBD
:102D20008A95EAF7892F0E94DF0BF0CF9BE5980F79
:102D3000933020F490E080E00C94890898E5980F97
:102D4000973120F490E080E00C9473088D3E20F0E1
:102D50000E94DE080C9493120895CF93C82F882305
:102D600009F46FC08CEF8C0F813AC0F58091B103EC
:102D7000882311F18091060687FF1EC0EC2FE6958F
:102D8000E695E695F0E0EA5BFB4F828190E04C2F00
:102D9000477021E030E002C0220F331F4A95E2F76E
:102DA00082239323892B91F06C2F86E494E00E9478
:102DB00014080E94E60D0AC0E8E4F4E08EE494E012
:102DC0002191C21789F38E179F07D1F76C2F86E4E4
:102DD00094E00E943E08CF910C94E60D80E28C0FA7
:102DE000883068F4C77021E030E001C0220FCA9536
:102DF000EAF78091F004822B8093F004ECCFEBE5AE
:102E0000EC0FE33040F4F0E0E150FC4F808190E0C3
:102E1000CF910C948908E8E5EC0FE73150F4F0E02D
:102E2000EE0FFF1FEE5FFB4F80819181CF910C94DD
:102E30007308CD3E30F08C2F0E949B09CF910C94EB
:102E40009312CF9108951F93CF93DF93182FD0E063
:102E5000C0E0893311F4C0E5D0E0812F0E94AD16A7
:102E6000209731F4812FDF91CF911F910C947B1625
:102E70008FE99FE00197F1F700C000002197F0CFA4
:102E80000F931F93CF93DF93C62FD42F022FFC01F4
:102E900082818823A1F060933C060E948712909360
:102EA0003B0680933A06C77081E001C0880FCA953F
:102EB000EAF7DF91CF911F910F910C94420E809110
:102EC0003C06681335C080913A0690913B060E94FB
:102ED0007812883C910560F510E21D0FCD17B9F00E
:102EE00080E28C0F883040F4C77081E001C0880F09
:102EF000CA95EAF70E943B0E183048F481E09D2FF6
:102F0000977001C0880F9A95EAF70E94420E802FB1
:102F10000E942317183098F4D77081E001C0880F01
:102F2000DA95EAF7DF91CF911F910F910C943B0E48
:102F3000C77081E001C0880FCA95EAF7F3CFDF912F
:102F4000CF911F910F9108954F925F926F927F9250
:102F50008F929F92AF92BF92CF92DF92EF92FF92A9
:102F60000F931F93CF93DF938C01FC018381948196
:102F7000892B31F08081918189238F3F09F032C400
:102F8000DF91CF911F910F91FF90EF90DF90CF9045
:102F9000BF90AF909F908F907F906F905F904F9079
:102FA0000895CE0135C4C63F2CE5D20709F465C0AB
:102FB00008F45FC027E245EE66EEC73F8CE5D80710
:102FC00009F468C4F8018281882309F487C4109247
:102FD0003C06C430FDE5DF0708F056C0CB3F2CE5CA
:102FE000D20730F4CE0182509C45449708F056C079
:102FF0000E94E90F9093070680930606C1319CE575
:10300000D90709F421C108F09FC0C930FCE5DF07EA
:1030100009F404C108F06CC0C5303CE5D30709F4DD
:10302000F5C008F052C0C3309CE5D90709F4E4C0EC
:1030300008F0E8C0809106068160C230DC4509F4E2
:10304000DEC060910606C091070684E090E00E9411
:103050005D2F6C2F82E290E00E945D2F0E9466132C
:103060001CC427E245EE65EE15C426E241EE60EE93
:1030700011C427E245EE64EE0DC426E241EE62EE95
:1030800009C428E241E0EFCFC2363DE5D30709F499
:10309000AFCFC63A8DE5D80709F4AACFC6312CE5E3
:1030A000D20709F028C48091F0048A7A91E009F4EB
:1030B00090E09093660469E2811165E386E494E010
:1030C0000E943E080E94E60DE8C3809106068062D9
:1030D000C7302CE5D20709F492C0809106068061C2
:1030E000C830DC4508F48BC080910606806487C038
:1030F000CD308CE5D80709F49BC098F48091060682
:103100008E7FCB30ECE5DE0709F479C080910606AE
:103110008C60CC30DC4508F472C0809106068D7F4F
:103120006EC0809106068F7ECF302CE5D20709F461
:1031300066C080910606877FC031DC4508F45FC019
:10314000809106068F7D5BC0CE3F8CE5D80709F4E1
:1031500077C050F5C531ECE5DE0709F47FC098F47F
:1031600080910606837FC3312CE5D20709F447C05E
:1031700008F46EC00E94661390910606892F97FB93
:1031800087F980583CC0CC3F8CE5D80709F442C091
:1031900008F052C0809107068160CB3FDC4509F002
:1031A00050CF809307064DCFC230FDE5DF0709F40D
:1031B00061C090F4809107068C7FC1153DE5D3076F
:1031C00081F390F180910706982F909591708E7FF2
:1031D000892B90FB81F9E5CFC2369DE5D90709F42B
:1031E0004FC0C63AEDE5DE0709F451C0C330DD45F6
:1031F00009F027CF60E03FC080910606826080938F
:1032000006061FCF809106068460F9CF80910606DE
:103210008860F5CF809107068260C3CF0E94661355
:10322000809106068068EBCF809107068360B9CF56
:10323000809106068B7FE3CF809107068E7FB1CF0A
:10324000809107068D7FADCF809106068F7BD7CF0B
:103250000E946613809106068F77D1CF8091060673
:1032600082FB992790F921E0922790FB82F990FB4D
:1032700083F9C5CF61E08EE090E00E945D2FE1CE42
:1032800090910606892F8F7E94FF8061B8CF909130
:103290000606892F8E7F90FF8160B1CF0E94661352
:1032A0003FEF84E39CE0315080409040E1F700C064
:1032B00000000E94530F81E03EC380E03CC3828146
:1032C000C081D1818823D9F0CE010E94F00BF82E65
:1032D000682FCE010E948B0CEC2FF0E026E0D29FED
:1032E000E00DF11D112430E3F39EE00DF11D1124DA
:1032F000EE0FFF1FE85CFC4F8591949124C3CE0133
:103300000E94620CF82EE8CF2C2F2F70E22EC07F87
:1033100019F0E29490EFE922FF20B9F0EE2069F075
:1033200080E28D0F883010F0D11109C08091F00437
:10333000E82AE092F0040E94E60D8D2F4AC08091A9
:103340008C05E82AE0928C05F6CF8D2F0E947B1623
:10335000EE2009F440C080E28D0F883010F0D111CA
:1033600004C08E2D0E94DF0B06C0E09480918C0576
:10337000E822E0928C050E94E60D2DC03C2F3F70A4
:10338000E32EC07FC03219F0E29480EFE822DD2303
:1033900081F0D13009F47AC0FF2009F484C0BB2049
:1033A00009F47AC0F801858180FFC7CF8F708583CB
:1033B00073C02091070622FF46C0FF20F1F1EE20E6
:1033C00039F08091F004E82AE092F0040E94E60DC2
:1033D00080E00E94AD16EC2DE850FF0B349710F4FE
:1033E0000E94D90FDD20A9F08091CF0480FD11C08B
:1033F000F80112828595859585950E943B13C80139
:103400000E94A4178091CF048595859585950E948B
:10341000DF1260E0C801DF91CF911F910F91FF9003
:10342000EF90DF90CF90BF90AF909F908F907F9064
:103430006F905F904F900C94E00C80E00E947B16A0
:10344000EE2049F28ECFFF20A1F09091F1048E2D55
:10345000892BB11003C00E94420EBDCFE1E0BE1225
:10346000FACF22FDB8CF981709F4B5CF8093F104B5
:10347000B2CFB11006C00E94D90B8E2D0E943B0E18
:10348000AACFF1E0BF1609F4A6CFF5CFFF2031F0A7
:1034900022E02B1508F49FCF8E2DDDCF31E03B15B8
:1034A00008F499CFEACFBB2041F3D93349F4FFEFB9
:1034B00027EE33E0F15020403040E1F700C000003B
:1034C0008D2F0E947B1687CF8C2F869586958370D3
:1034D00069F0813009F07FCF8D2F9C2F9370F11010
:1034E00002C090E080E00E94730875CF8D2F9C2F62
:1034F0009370F11002C090E080E00E9489086BCFC9
:103500008D2FFF2029F00E949B090E94931263CF08
:103510000E94DE08FACF8C2F837009F065C0F1108D
:103520005ACF8D2F829586958770880F880F6D2FC3
:103530006F70862E912CB12CA12C082E04C0880C03
:10354000991CAA1CBB1C0A94D2F740E050E0BA01B7
:10355000D4FF0FC04FE050E060E070E004C0440FC3
:10356000551F661F771F8A95D2F740955095609535
:103570007095C695C695C370C23019F1D8F44090C5
:10358000F2045090F3046090F4047090F504C1309C
:1035900069F0482959296A297B29CB01BA0164219C
:1035A0007521862197210E945C1315CF84289528C8
:1035B000A628B728CB01BA01682979298A299B292D
:1035C000F2CF482959296A297B298090F2049090EA
:1035D000F304A090F404B090F504CB01BA0168257F
:1035E00079258A259B25DFCF8695FF2011F08C2F2A
:1035F0008170882309F4EFCE8D2F82958695877090
:10360000880F880F6D2F6F70862E912CB12CA12CF6
:10361000082E04C0880C991CAA1CBB1C0A94D2F763
:1036200040E050E0BA01D4FF0FC04FE050E060E04E
:1036300070E004C0440F551F661F771F8A95D2F7AC
:103640004095509560957095C695C695C370C230EB
:1036500019F1D8F440903605509037056090380540
:1036600070903905C13069F0482959296A297B29A8
:10367000CB01BA0164217521862197210E94D512C0
:10368000AACE84289528A628B728CB01BA01682994
:1036900079298A299B29F2CF482959296A297B2926
:1036A0008090360590903705A0903805B090390588
:1036B000CB01BA01682579258A259B25DFCFCF70FC
:1036C000FF2029F08C2F0E943B138D2FC4CE8D2F0D
:1036D0000E943B0E8C2F0E94DF127DCED23FD1F193
:1036E00060F4D03FB9F0D13F81F0FF2009F46AC007
:1036F000B11023CE8C2F8F7131C0D33F91F1D43FC5
:10370000A1F78091070682FF3FC08C2F8F71FF20A9
:1037100011F324C0FF20C9F081E08B1508F45BCEC3
:10372000CF7161E070E080E090E004C0660F771F29
:10373000881F991FCA95D2F780903605909037055B
:10374000A0903805B0903905B5CF92E09B1508F4EC
:1037500042CEE6CF8C2F8F71F110BDCF0E943B136C
:103760003ACE60E070E0CB01FF2009F487CFCF7143
:1037700061E070E080E090E004C0660F771F881F72
:10378000991FCA95D2F77ACFFF2089F0CF718C2F7D
:103790000E943B138091070682FD07C0E8E0CE9FA0
:1037A000C001112483608093CF048C2FD7CF81E098
:1037B0000E940213F1E0FB1508F00DCE82E00E949A
:1037C000021309CEBB2059F0D93309F079CE2FEF7F
:1037D00037EE83E0215030408040E1F76FCE8C2FF0
:1037E0008F7179CF61E0C8010E94E00CEC01F80113
:1037F00082818823B1F1CE0190568115F0E29F07B6
:1038000028F0905E8115904108F0CBCBCE0199272E
:1038100020E28C33910520F4FC01ED53FC4F208114
:103820001F922F939F938F93F80180811F928F9304
:1038300081811F928F9382EB93E09F938F931F92CE
:1038400088E18F938AE395E09F938F930E94B02C39
:103850002DB73EB7225F3F4F0FB6F8943EBF0FBE65
:103860002DBFC43F3CE5D30709F4FFCB08F09BCB49
:10387000C93D9CE5D90709F4F4CBCA3DECE5DE0768
:1038800009F4FFCBC83DFCE5DF0709F09BCB26E23E
:1038900041EE61EEC8010E9440178091CF0487700D
:1038A00009F46ECBF8018281882309F469CB8091F9
:1038B000070682FD65CB82E0DF91CF911F910F91CA
:1038C000FF90EF90DF90CF90BF90AF909F908F9040
:1038D0007F906F905F904F900C940213C631DC453F
:1038E00061F58091660469E2811165E386E494E004
:1038F0000E941408E7CBCB352DE5D20709F4DBCCC9
:1039000058F4C1158CE5D80709F4C8CCCF3DDC4587
:10391000A1F40E941011C1CFCC35EDE5DE0709F40A
:10392000CCCCCD35DD4549F48091070682FB882754
:1039300080F991E089270E941E13F8018681978102
:10394000009709F4BCCC0E94510AD82FC92FF80166
:10395000F280B580B2943FE0B3228091CF048770AB
:10396000C1F0DF2CFF20B1F0892F807F803421F05F
:1039700080E28D0F883068F08091070682FD09C0D3
:1039800082E00E9402138091CF048770DD24D394DB
:103990008111D12CCC2EC2942FE0C222FBE0FC1569
:1039A00008F419CDEC2DF0E0E356F04D0C94542CB6
:1039B000CF93DF9380918A04807FA1F48091870464
:1039C000882381F08091CE04D0918D04609185048C
:1039D00070918604A0918804B0918904C62FC723F2
:1039E000D81303C0DF91CF91089590E0109711F0A4
:1039F000CF3F19F401968770F3CF9C0143E0220F6B
:103A0000331F4A95E1F7F901E257FB4F4181471314
:103A1000F1CF40814613EECF42814111EBCF43817C
:103A200054814A1B5B0B483C510520F780918A0466
:103A30008F70806180938A04F901ED56FB4F80817D
:103A40008F708061808385E894E00E94A417DF91E5
:103A5000CF910C94E60BAF92BF92CF92DF92EF9290
:103A6000FF920F931F93CF93DF93CDB7DEB7659788
:103A70000FB6F894DEBF0FBECDBF8C0185E0F80114
:103A8000DE01519601900D928A95E1F7F801E280EE
:103A900065E8A62E64E0B62E6091880470918904D2
:103AA0006115710509F468C19091850440918604FF
:103AB000892F84238F3F09F45FC120813181C38026
:103AC000D480F0908704F601E61BF70BFF2009F481
:103AD0001DC180918A04582F507FE83CF10508F001
:103AE000D0C0511181C0FE2C43132BC0921329C0AA
:103AF00060918B0470918C04F801468157816417A2
:103B00007507F9F4E1101DC08F70806180938A04FD
:103B1000C5010E94A41780918A04F80185838F2D26
:103B200065960FB6F894DEBF0FBECDBFDF91CF9183
:103B30001F910F91FF90EF90DF90CF90BF90AF90CB
:103B40000895CD2829F0822F83238F3F09F02FC1BC
:103B500080E0F82FF170DF2E80FF3CC08091CE0412
:103B600040918D04841315C0298B3A8B89899A89D9
:103B70000E94470C292F22952F702230F8F0243014
:103B800020F59F70F9F0F8019581907FD9F4D12C40
:103B90001FC090E0FC0153E0EE0FFF1F5A95E1F7C4
:103BA000E257FB4F5181351306C05081251303C0E6
:103BB0005281E5120FC001968770D4CF9F7011F02B
:103BC000882329F3805E883010F3C8010E94A4176F
:103BD000FD2CA5CFEE2009F4A2CF80918A0481604C
:103BE00080938A04F12C9BCF43131BC0921319C0FE
:103BF00040918B0450918C04F80126813781421743
:103C0000530779F4E1100DC08583C8010E94A41701
:103C100088E0F801A5E8B4E001900D928A95E1F7FB
:103C20007ECFC8010E94B90C882339F1EE2029F11A
:103C300080918A048032A0F020918504309186041E
:103C40003A8729871B86DD86CC868E8780918B04F8
:103C500090918C04988B8F87CE0109960E94A417AF
:103C600088E0F801A5E8B4E001900D928A95E1F7AB
:103C70000E94D81CFF24F39452CFC8010E94A417BD
:103C8000F9CF51110AC085E894E00E94A41788E09A
:103C9000F50111928A95E9F7A5CF431318C0921345
:103CA00016C040918B0450918C04F8012681378115
:103CB0004217530761F4E1100AC08583C8010E94CE
:103CC000A41788E0F50111928A95E9F728CFC80179
:103CD0000E94B90C882389F2EE2079F280918A043F
:103CE000803208F4BDCF20918504309186043A8358
:103CF00029831B82DD82CC828E8380918B049091FC
:103D00008C0498878F83CE010196A8CFE83CF105FB
:103D1000C0F6FE2CEE2009F4B0CF43131FC092135F
:103D20001DC020918B0430918C04F801868197810D
:103D30002817390799F490918A0490FD69CF907FF4
:103D400009F466CF80918A048583903F09F45DCFA2
:103D5000982F907F905F8F70892B56CFC8010E945B
:103D6000B90C81117DCF80918A04816080938A048F
:103D7000C8010E94A417D3CEEE2009F47ECFC8015B
:103D80000E94B90CF82E882309F477CF88E0F80157
:103D9000A5E8B4E001900D928A95E1F78091850441
:103DA000909186040E94470C0E94D81CB8CE81E0F6
:103DB0008E25CFCECF93DF93CDB7DEB760970FB60A
:103DC000F894DEBF0FBECDBF29873A874B875C874B
:103DD0006D877E878F87988BCE0109960E942B1D59
:103DE000811112C088E0FE013996DE011196019022
:103DF0000D928A95E1F78C859D85892B29F089851F
:103E00009A8589238F3FA9F58091CE0490918D04E6
:103E100089131CC060960FB6F894DEBF0FBECDBFED
:103E2000DF91CF91089593E0AA0FBB1F9A95E1F718
:103E3000A257BB4F98E0FE01319601900D929A95E2
:103E4000E1F780938D040E94E60BDECFB8E08B9FF4
:103E5000C001112482579B4F0E942B1D8823D1F251
:103E60008091CE0490E00196877099278093CE04CC
:103E7000CBCFA0918D04B0E0CD010196877099273A
:103E80002091CE042817190671F60E94661310922D
:103E90008D041092CE0488E0E5E8F4E0DF011D9285
:103EA0008A95E9F7B1CF6F927F928F929F92AF92EE
:103EB000BF92CF92DF92EF92FF920F931F93CF9317
:103EC000DF9380918E05882371F0E0918D058CE061
:103ED000982E9AE0792E80918E05E81798F010922E
:103EE0008E0510928D05DF91CF911F910F91FF905C
:103EF000EF90DF90CF90BF90AF909F908F907F908A
:103F00006F900895882483948E0E80928D05CE2E16
:103F1000D12CE99DF0011124E157FA4F838194815E
:103F2000892B31F08081918189238F3F09F0A9C0CD
:103F3000E82DD1CF18968D919C918F3F980709F469
:103F4000AEC08B35910509F0B4C0CFE8D5E0FE01D5
:103F50008491882309F4ADC0813009F03EC03196C8
:103F60008491813031F42296FE0184910E942317BE
:103F700007C0823039F42296FE0184910E94AD166A
:103F80002196E5CF833031F42296FE0184910E9480
:103F90007B16F6CF843009F072C02296FE01249180
:103FA00090E080E0FE0131962053330B2A3031053A
:103FB00048F0019728F3EFE9FFE03197F1F700C0EF
:103FC0000000F7CF789EA001799E500D1124C90101
:103FD000840F951F2491EF01E5CFE82FF0E0E15F1A
:103FE000FA4F6490E82FE695E695E6950E2F10E0DF
:103FF000F801E150FB4FE4908770F12C082E02C0CD
:10400000F594E7940A94E2F721E0E222FF24F80114
:10401000E151FB4FA490B12C082E02C0B594A79497
:104020000A94E2F791E0A922BB2401521B4FF80148
:10403000049110E002C0159507958A95E2F701708A
:104040001127E114F10419F081EE0E94AD16A114BC
:10405000B10419F086EE0E94AD16862D0E9423173A
:10406000AB2819F086EE0E947B16EF2819F081EE3E
:104070000E947B16012B09F483CF8CE277CFEF01EE
:104080007FCF9C9CD0019D9CB00D1124A157BA4FAD
:1040900016968D919C911797892B09F44BCF20810F
:1040A00031814281538164817581868197810E942B
:1040B000DA1E9C9CF0019D9CF00D1124E157FA4FF3
:1040C0001482138210928C0533CF1092FA0510924D
:1040D000F9051092B0038091F8058093F7050E94CE
:1040E000CD080C94531F2F923F924F925F926F9284
:1040F0007F928F929F92AF92BF92CF92DF92EF9278
:10410000FF920F931F93CF93DF93C091F705E7E0E2
:10411000FE2E01E010E0FCE02F2EAEEFEA2E8091A3
:10412000F8058C1316C00E94531FDF91CF911F9189
:104130000F91FF90EF90DF90CF90BF90AF909F9046
:104140008F907F906F905F904F903F902F900C9446
:10415000CD08D0E0FE01EE0FFF1FE151FA4F808144
:104160009181F89EF001F99EF00D1124E45DFE4F5F
:104170002481211158C030908E05AFE8B5E030E0C1
:1041800020E0412C5F01231508F04BC01A966D907A
:104190007C901B97F501808091804FEF5FEF512C51
:1041A000C52CD12CF601EE0FFF1FE80DF91D65910E
:1041B00074916616770609F4A601672B11F05394E3
:1041C000EFCF4F3F5407B1F1B80102C0660F771F20
:1041D0004A95E2F7462AA80102C0440F551F5A9497
:1041E000E2F7415051094416150601F5229EF001EF
:1041F000239EF00D1124E157FA4FF89ED001F99E4D
:10420000B00D1124A45DBE4F12962D913C911397D1
:1042100037832683E082E1829187808771E015965B
:104220007C930E949F082196C37079CF14961C92AC
:104230001E9213972F5F3F4F1C96A5CF7F928F92B0
:104240009F92AF92BF92CF92DF92EF92FF920F9325
:104250001F93CF93DF93CDB7DEB72C970FB6F894AB
:10426000DEBF0FBECDBF8E010F5F1F4F88E0D801AC
:104270001D928A95E9F782E3C82E84E0D82EF12CAE
:10428000E12CAA24A394B12C2CE3822E24E0922EBC
:10429000F60181916F018F3F09F442C0F894E82F35
:1042A000E295EF70F0E021A18F70A50102C0440FEC
:1042B000551F8A95E2F7CA01922F982B91A392A1DC
:1042C0008095892382A3789400C0E6E3F4E0712C02
:1042D00031E021912F3F09F47DC0A22FA295AF704C
:1042E000B0E090968C9190E02F7002C095958795E4
:1042F0002A95E2F780FD6EC0832F782A330F8E1641
:104300009F0639F7F601319780818F3F11F00E94A7
:10431000F70950EA5A95F1F7F801EE0DFF1D70828A
:104320008FEFE81AF80AA4E0EA16F10409F0B0CF1A
:1043300048E050E0B8018BE195E00E949A2C7C01A6
:10434000892B41F088E0F801ABE1B5E001900D92D6
:104350008A95E1F710912405E114F104E9F181E077
:104360008093F8040E9487129093F7048093F604D8
:104370008091F6049091F7040E947812059790F0CE
:10438000E12FF0E0EB5DFA4F80911B058083809177
:104390001C05818380911D05828380911E05838386
:1043A0001092F80481E090E0EF28D1F02C960FB63F
:1043B000F894DEBF0FBECDBFDF91CF911F910F915B
:1043C000FF90EF90DF90CF90BF90AF909F908F9035
:1043D0007F90089580E091CF8091F8048111C8CF3B
:1043E0000E94B60FF82EE0912405882309F46CC0D2
:1043F00019861A861B861C860E2F10E00B5D1A4F3D
:10440000809116058A3050F547E650E1BE01675F9E
:104410007F4FC8010E94770F882379F147EF5FE053
:10442000BE01675F7F4FC8010E94770F882329F183
:10443000109216058091230590E044E050E0BE0103
:10444000675F7F4F8B5D9A4F0E949A2C21E02093EB
:10445000FF04892B59F5F12C8F2DA8CF8091F904F9
:104460009091FA040E947812843F914068F68091FE
:10447000FF04811112C080E099CF809116058F3F13
:1044800029F08F5F809316058A30A0F20E94871270
:104490009093FA048093F904EACFFE01399684E000
:1044A000DF011D928A95E9F71092FF04E091230540
:1044B000F0E0EB5DFA4F89859A85AB85BC858083FA
:1044C0009183A283B383C8CFF0E0EB5DFA4FF894F9
:1044D00084E0AAE0B5E001900D928A95E1F78AE0C8
:1044E00095E00E946306809309057894F894C09043
:1044F0000E05D0900F05E0901005F0901105809109
:10450000FB049091FC04A091FD04B091FE04C81638
:10451000D906EA06FB06D1F0C092FB04D092FC0457
:10452000E092FD04F092FE040E94B60F81110EC0CD
:104530000E940808C61AD70AE80AF90AC0921705A5
:10454000D0921805E0921905F0921A05789493CF4D
:104550002F923F924F925F926F927F928F929F9293
:10456000AF92BF92CF92DF92EF92FF920F931F9381
:10457000CF93DF93CDB7DEB769970FB6F894DEBF60
:104580000FBECDBF498B5A8B6B8B7C8B8D8B611192
:1045900010928C051D861E861F86188A85E0FE01F6
:1045A0007196DE01199601900D928A95E1F78C853E
:1045B0009D85892B31F089859A8589238F3F09F064
:1045C000D2C129853A854B855C856D857E858F8531
:1045D00098890E94DA1EC1C029EFC2162CE5D206C6
:1045E00029F4882379F00E946520EBCF3AEFC316B7
:1045F0003CE5D30639F4882329F08091B00381117A
:10460000F2CFC1C10CE211E0E12CB12CA12C882425
:104610008394912C9EEF592E44244394F801608199
:10462000718166246A94762C20E0422F50E0FA01D2
:10463000EE0FFF1FE60FF71F85919491C816D9065C
:1046400009F43A01892B11F02F5FEFCFF12CFFEF26
:104650006F167F0609F443C0F8014481F090B0035F
:104660008F2D411180E0F82FF170FF2EF801258089
:1046700086819B85992309F406C1FF2009F403C1B3
:10468000211013C0A40101C0440F6A94EAF7842BDF
:10469000868380918A0590918B05C29730F442E31E
:1046A00050E050938B0540938A05C40102C0880FE7
:1046B000991F2A95E2F70197F80126812817190614
:1046C00071F48091F9059091FA05009709F45EC0A4
:1046D0000E947812C39708F459C0F8014482EF2869
:1046E000FFEFAF1ABF0A095F1F4F2CE5A216B104F6
:1046F00009F094CF8B85882309F420C1EE2009F4BA
:104700001DC10E9487129093FA058093F90580914C
:104710008E05883010F591E0980F90938E0598E003
:10472000FE013996DE01119601900D929A95E1F7FE
:104730003CE0839FC001112481579A4F28E0FE017D
:104740003196DC0101900D922A95E1F72FEF3FEFB2
:10475000FC0131872087D386C28669960FB6F8940C
:10476000DEBF0FBECDBFDF91CF911F910F91FF90A4
:10477000EF90DF90CF90BF90AF909F908F907F9001
:104780006F905F904F903F902F9008958091F70524
:104790006090F805982FF0E0E0E0861114C0909347
:1047A000F7050E171F0709F49ACF90E0FC01EE0FF2
:1047B000FF1FE151FA4FB182A082019683709927C1
:1047C0008093F8058CCF282E312CF101EE0FFF1FBE
:1047D000E151FA4F20813181F7E0F29FD001F39F40
:1047E000B00D1124A45DBE4F2D913C911197398FCE
:1047F000288F712C60E070E0E72FF0E0EE0FFF1FD4
:10480000288D398DE20FF31F259134912115310543
:10481000E1F0F8010190F081E02DFF8BEE8B60E07C
:1048200005C02417350709F47F2C6F5FE62FF0E0F1
:10483000EE0FFF1F4E895F89E40FF51F45915491DC
:104840004115510571F77F5FD7CF7720C9F0F80187
:10485000671708F0FD0144820E171F0721F490939B
:10486000F705F72C3CCF981305C0AE17BF0711F41E
:104870009F5F937091012F5F3F4F822F83708DCF89
:10488000F0E0E0E0F7CF90E021101FC0B40102C0DB
:10489000660F771F2A95E2F79B01215031092817EF
:1048A000390731F4442309F447C0C5010E949F0829
:1048B000C40101C0880F6A94EAF7982F9095F80117
:1048C000868189238683F22C0ACF9C01062C02C0A4
:1048D000359527950A94E2F7A90141705527BC0147
:1048E0006150710986239723892B11F5452B01F11E
:1048F000F80182819381892BC1F01B821C821D8269
:104900001E8259825A820E9487128160582F9D838D
:104910008C83F801828193818F83988729813A81E2
:104920004B816D817E810E94DA1EF8011582C0CF15
:10493000F22FF1702F2EBCCF2F2CBACF9091F7050C
:104940008091F805981731F00E947320EE2009F449
:1049500038CE03CF0E94531F1092FA051092F9052A
:104960000E94CD08F3CF61E0CE0109960E94E00CD1
:104970006C018B85F8EFCF16FCE5DF0609F02CCE35
:10498000882309F43FCE81E08093B0031ACE1F92B2
:104990001FB61F9211248F939F93AF93BF93809163
:1049A0000106811113C08091020690910306A09127
:1049B0000406B09105064196A11DB11D8093020623
:1049C00090930306A0930406B0930506BF91AF91A0
:1049D0009F918F911F901FBE1F901895CDB7DEB786
:1049E00062970FB6F894DEBF0FBECDBF84B7877F46
:1049F00084BF0FB6F894A895809160008861809379
:104A00006000109260000FBE80E890E00FB6F8944E
:104A100080936100909361000FBE85B7806885BF69
:104A200085B7806885BF85EF99E0909345048093B2
:104A300044040E947A060E9445078091E200846047
:104A40008093E2007894809130068823A1F0109141
:104A5000E9001F709091EC00892F817090FD80E833
:104A6000182B1092E9008091E80083FD0E947B13CF
:104A70001F701093E90082E084BD93E095BD9AEF2A
:104A800097BD80936E001092170510921805109232
:104A9000190510921A050E94B60F809318010E9402
:104AA000B60F81110E94BD2A8091180180911801D2
:104AB00094E0811190E09093240584E0891B809319
:104AC000230584E90E94F70986E60E94F70987E931
:104AD0000E94F70986EC0E94F70906E314E07CE3E4
:104AE000E72E74E0F72ED8018D918D018F3F11F0E4
:104AF0000E94F709E016F106B1F788E0E5E2F5E07B
:104B0000DF01282F1D922A95E9F7EBE1F5E0DF019F
:104B10001D928A95E9F790E080E00E94572F893E28
:104B20009E4F11F00E94101182E090E00E944F2FE2
:104B300080932D050E94E90F909307068093060647
:104B40000E941E21EFE3FCE93197F1F700C000005D
:104B50000E941E210E94B60FE4E08111E0E0F0E027
:104B6000EB5DFA4F808181FF08C06FEF7FEF90E02F
:104B700080E00E947B2F0E94530F83E090E00E9410
:104B80004F2F682F70E090E080E00E945C130E943D
:104B9000B60F8111C5C182E08093720580E88093D1
:104BA0003D060E9455296DE070E08BE694E00E947E
:104BB0004C0E892BE9F58091720563E070E081FD70
:104BC000B1C188E694E00E944C0E892B89F56DE016
:104BD00070E088E594E00E944C0E892B49F50E9414
:104BE0000808605A75418F4F9F4F609384057093FA
:104BF00085058093860590938705E0E4F6E080E0E4
:104C000092E0DF019C011D9221503040E1F7F093CA
:104C10004708E09346088FEF9FEF90933F068093FD
:104C20003E0681E080938905809388051092730584
:104C30000E94B60F811102C00E94C02A89E191E052
:104C40009093FE058093FD0568E1862E912C80915E
:104C5000300600E112E1853009F49FC10E941E2157
:104C6000D82E81110E940808A5E2B5E0EEE2F5E039
:104C700010E000E0B02EED9081918E1509F49CC1FA
:104C80008E25C12CFF24F394982F9F2109F48FC106
:104C90000E94B60F882399F0CF82B886EF2081E07A
:104CA00009F480E089870E9487128160782F9B87B2
:104CB0008A874F81588569858B850E94A822F801D3
:104CC000E25DFA4F8081F826F0820E94B60F8823B9
:104CD00021F18091B003882301F18091F905909131
:104CE000FA050097D1F00E94781220918A05309140
:104CF0008B052817390788F49091F7058091F805FE
:104D0000981709F470C10E94732010928B051092BD
:104D10008A051092FA051092F90580918905882379
:104D200051F180917405909175050E947812C29797
:104D300008F062C120913E0630913F0621153105F1
:104D400009F0B2C1809188058823A9F00E94080863
:104D50000091840510918505209186053091870585
:104D6000601B710B820B930B6F3F7F4F8F4F9F47E1
:104D700010F40E947C0ED1100E94970E86E0EEE7A0
:104D8000F5E0DE01119601900D928A95E1F7F09021
:104D90008005E090810510918205009183051092B5
:104DA00080051092810510928205109283058F2D47
:104DB0008E2909F448C080917C0590917D050E9460
:104DC00078129C0190917805992309F469C22531E4
:104DD0003105C8F19F3F19F09F5F90937805FF2040
:104DE00059F00E9479099FEF1F140CF491E0899FFC
:104DF000802D112480938005EE2059F00E947909BE
:104E00009FEF1E140CF491E0899F802D1124809354
:104E10008105309180053323B1F020918105222353
:104E200091F045EB3403C0011124992309F40EC21B
:104E30009093800545EB240390011124332309F45A
:104E400009C230938105812F802B09F448C08091DD
:104E50007A0590917B050E9478129C0190917705CC
:104E6000992309F419C221353105C8F19F3F19F082
:104E70009F5F90937705112359F00E9457099FEF88
:104E800011160CF491E0899F802D112480938205E6
:104E9000002359F00E9457099FEF10160CF491E07F
:104EA000899F802D112480938305309182053323BF
:104EB000B1F020918305222391F045EB3403C0012A
:104EC0001124992309F4CAC19093820545EB240368
:104ED00090011124332309F4C5C1309383058091D7
:104EE000800590918105892B90918205892B909165
:104EF0008305892B11F00E94931286E0FE01319602
:104F0000AEE7B5E001900D928A95E1F70E94D90FC6
:104F100090917605891709F49ACE8093760597CEFD
:104F200080E03ACE85E694E04ECE80913006843023
:104F300021F10E947C0E1092010630E40FB6F89425
:104F4000A895809260000FBE3093600083B7817F88
:104F5000846083BF83B7816083BF7894889583B76B
:104F60008E7F83BF0FB6F894A8958091600088610A
:104F700080936000109260000FBE80912F068823FE
:104F800061F00E941E21E5E2F5E0819181116EC180
:104F90008DE295E08E179F07C1F78091300685302E
:104FA00009F4C3CF0E9466130E94D90F57CEC39451
:104FB000FF0C96E0C91268CE0F5F1F4F0830110535
:104FC00009F058CE8FEF8C878D871E860E9487123E
:104FD0008160782F988B8F874C855D856E85888959
:104FE0000E94A82272CE0E94531F1092FA051092BE
:104FF000F9050E94CD0891CE0E9487129093750505
:1050000080937405A0E4B6E0B0934708A0934608E7
:105010000E94B60F882309F442C083E994E00E94FD
:10502000A60D8091360590913705A0913805B09175
:1050300039058F309105A105B10560F4FC01E755F4
:10504000F04D0C94542C8BE894E00E94A60D81E066
:105050000E94B40D0AE315E0F80101900020E9F781
:105060008F01015011095AE3E52E55E0F52EE016A7
:10507000F10678F080918905882309F463CE5ACE31
:1050800085E894E0E2CF8FE794E0DFCF88E794E013
:10509000DCCFD7018D917D010E94250DE8CF8BE9F2
:1050A00094E00E94A60DE6CF8091730561E070E068
:1050B000811148CE082F10E07B01082E02C0EE0CB3
:1050C000FF1C0A94E2F7A9014E215F21452B09F448
:1050D00047C09091720590FD45C08295880F8076FB
:1050E000809327019801369527953695279520932B
:1050F0002A01815E8093280110922B0124E630E082
:1051000047E050E065E271E088E70E94042A892BBD
:1051100009F018CEA80125E0440F551F2A95E1F7A4
:105120008091720580FD2CC0405C594F04E610E070
:1051300020E230E060E488E70E942B2A892B09F006
:1051400001CE0E94970EE094F09480913E069091DB
:105150003F06E822F922F0923F06E0923E06F2CDA9
:105160008F5FA8CF880F880F880F80932701109238
:105170002A01895F8093280183E080932B01BECFB1
:10518000E2E5F5E080E2DF011D928A95E9F7E0E4CF
:10519000F4E0FA8BE98B0CE314E094E4292E94E01C
:1051A000392EA989BA892D91BA8BA98BF801419022
:1051B0008F01440E552E511CC201805C994F2C0169
:1051C000E22FF0E0EE5AFA4F30E020E087E0682E60
:1051D000621ACC24C394022E01C0CC0C0A94EAF7C4
:1051E000520190E0D5018D915D018C21662D691BE6
:1051F0006770762E062E000C770BB82F01C0BB0F00
:105200007A94EAF77B2E719561957109677077271B
:1052100001C086956A95EAF7782A8081782A70829B
:105220009F5F9830F9F62F5F3F4F31962830310558
:1052300069F6E989FA892E163F0609F0B2CF04E62D
:1052400010E020E230E042E555E074CF81E0809349
:105250008005F0CD81E080938105F5CD81E08093DC
:10526000820534CE81E08093830539CE09BD19BD16
:1052700009B400FEFDCF8091D8008F7D8093D800C7
:105280008091E00082608093E0008091E00081FDE9
:10529000FCCF0E94661381CE232B09F0E9CD1FCEEF
:1052A0002B30310508F098CDCECD1092B9008CE0AE
:1052B0008093B80008959F92AF92BF92CF92DF92F1
:1052C000EF92FF920F931F93CF93DF93B82EEB01D2
:1052D0000E9487126C01EE24E394F12CC431D105B5
:1052E00060F025E0E22EF12CCF3FDC0731F0CE015B
:1052F00064E170E00E94202C7B0184EAA82E94E8EF
:10530000992E1092BC00A092BC000E9487128C01C2
:105310008091BC0087FF0DC08091B900887F8830E4
:1053200039F18091B900887F803111F10FEF1FEFC3
:1053300009C00E948712801B910B8E159F0540F3B8
:105340000EEF1FEFCF3FDC07E1F2C6010E9478129B
:105350008C179D07B0F2C801DF91CF911F910F917B
:10536000FF90EF90DF90CF90BF90AF909F90089507
:10537000B092BB009092BC000E9487128C01809179
:10538000BC0087FF0AC08091B900887F883111F086
:10539000803461F610E000E0DECF0E948712801BAF
:1053A000910B8E159F0558F3CBCF0F931F93CF937F
:1053B000DF93EB018093BB0084E88093BC000E94E4
:1053C00087128C018091BC0087FF11C02091B90029
:1053D000287F81E090E0283211F490E080E0919500
:1053E00081959109DF91CF911F910F910895CF3F42
:1053F000DC0741F30E948712801B910B8C179D07DD
:1054000008F38EEF9FEFEECFCF92DF92EF92FF92F5
:105410000F931F93CF93DF936B018A017901B90139
:105420000E945B29E6010C0D1D1DC017D10761F418
:1054300024E92093BC00DF91CF911F910F91FF9041
:10544000EF90DF90CF90089597FDF2CFB70189914B
:105450000E94D529EACFCF92DF92EF92FF920F936D
:105460001F93CF93DF93C62F6A017901B8010E9481
:105470005B2997FD0CC0B8018C2F0E94D529E6014D
:10548000EC0CFD1CCE15DF0511F097FF0CC024E9D4
:105490002093BC00DF91CF911F910F91FF90EF906F
:1054A000DF90CF900895B80189910E94D529EACF65
:1054B00084E98093BC0008958EE14A9B02C081502C
:1054C000E1F74A9BFECF08955A9880E28A95F1F75A
:1054D0005A9A0895FC013BE03A95F1F798E020E0F4
:1054E00080E031E040E14A95F1F7880F4A9B02C025
:1054F0008160232742E04A95F1F7000040E14A9598
:10550000F1F7915079F790E19A95F1F799B132E07E
:105510003A95F1F7000040E14A95F1F792FB99279F
:1055200090F992272081920F90830895EF92FF9235
:105530000F931F93CF93DF930F92CDB7DEB71982EE
:105540008C017C01E60EF11C0E151F0561F481E053
:105550009981911180E00F90DF91CF911F910F9170
:10556000FF90EF9008950E945C2ACE0101960E9460
:105570006A2AF80181938F01E7CF529A5A9A0895C7
:1055800052985A9AEA9AE9E6F0E080818F7C80830B
:1055900008956150770B91E001C0990F6A95EAF781
:1055A00020E031E0911108C0222391F05A9A80E264
:1055B0008A95F1F75A980895492F482339F05A9A55
:1055C000232740E24A95F1F79695ECCF5A98F9CF08
:1055D0005A98EDCFFF920F931F93CF93DF93EC0177
:1055E0008C01060F111DC017D10731F4DF91CF9147
:1055F0001F910F91FF900895F9900E94642A68E02E
:105600008F2D0E94C92AEFCF1F920F920FB60F92D3
:1056100011240F931F932F933F934F935F936F9397
:105620007F938F939F93AF93BF93EF93FF93CF930A
:10563000DF930F92CDB7DEB719820E945C2ACE01AC
:1056400001960E946A2A082F069506950695282F2E
:1056500022952570902F9570290F922F9370269583
:105660002695920F982797708981982B09F05CC036
:10567000043008F059C080E18A95F1F75A9A529A9D
:1056800082E08A95F1F700C05A9888E0089F80016F
:105690001124D801A050BF4F1696ED91FC91179799
:1056A0003097A9F0609130047091310414962D91D7
:1056B0003C911597260F371F11968D919C9112974B
:1056C000680F791F13964C9113978C910995F801E7
:1056D000E050FF4F6381662351F0209130043091F8
:1056E000310484819581820F931F0E94EA2A0E94CF
:1056F000642A80E18A95F1F75A9852985A9A80E183
:105700008A95F1F7F801E050FF4F6081662351F070
:10571000209130043091310481819281820F931F56
:105720000E94962A0E945C2A0F90DF91CF91FF91F0
:10573000EF91BF91AF919F918F917F916F915F9109
:105740004F913F912F911F910F910F900FBE0F908E
:105750001F9018950F931F93CF93DF93EC0104973D
:105760000CF04CC0F894529A5A9885E08A95F1F75B
:1057700000009C2F969595708C2F8570980F892F1F
:1057800083709695969523E0CC0FDD1F2A95E1F75F
:10579000980F8E01092B0E94642A00C068E0802FB8
:1057A0000E94C92A80E18A95F1F752985A9A4A9B39
:1057B0001EC087E090E04A991CC0FE01E050FF4FF8
:1057C00063816623F9F020913004309131048481A3
:1057D0009581820F931F0E94962A811113C0529ABD
:1057E0005A9A7894DF91CF911F910F91089500C03C
:1057F000DECF019729F4529A5A9A789480E0F2CF3A
:1058000000C0D9CF0E945C2A80E28A95F1F75A98AD
:10581000529A80E18A95F1F7C050DF4F6881662384
:1058200051F0209130043091310489819A81820FA6
:10583000931F0E94EA2A0E94642A789481E0D2CFC2
:10584000AA1BBB1B51E107C0AA1FBB1FA617B707A6
:1058500010F0A61BB70B881F991F5A95A9F78095C2
:105860009095BC01CD010895991B79E004C0991F62
:10587000961708F0961B881F7A95C9F780950895AA
:1058800097FB072E16F4009407D077FD09D00E94ED
:10589000202C07FC05D03EF4909581959F4F0895EC
:1058A000709561957F4F0895EE0FFF1F0590F4915D
:1058B000E02D09942F923F924F925F926F927F92C8
:1058C0008F929F92AF92BF92CF92DF92EF92FF9210
:1058D0000F931F93CF93DF93CDB7DEB7CA1BDB0BBC
:1058E0000FB6F894DEBF0FBECDBF09942A88398861
:1058F00048885F846E847D848C849B84AA84B98468
:10590000C884DF80EE80FD800C811B81AA81B98173
:10591000CE0FD11D0FB6F894DEBF0FBECDBFED0187
:105920000895FB01DC0102C005900D9241505040EA
:10593000D8F70895FB01DC0104C08D910190801916
:1059400021F441505040C8F7881B990B0895FB0182
:10595000DC0102C001900D9241505040D8F70895EB
:10596000AEE0B0E0E6EBFCE20C94682C0D891E89F9
:105970008F89988D26E02C831A83098397FF02C0B4
:1059800080E090E801979E838D83AE01455E5F4F76
:10599000698D7A8DCE0101960E94E02C4D815E8149
:1059A00057FD0AC02F813885421753070CF49A011E
:1059B000020F131FF80110822E96E4E00C94842C41
:1059C000ABE0B0E0E6EEFCE20C945A2C7C013B012B
:1059D0008A01FC0117821682838181FFB9C19AE096
:1059E000292ECE0101965C01F7019381F30193FD0D
:1059F000859193FF81913F01882309F446C1853247
:105A000039F493FD859193FF81913F01853229F40B
:105A1000B70190E00E94C12EE7CF912C412C512C70
:105A2000FFE1F51538F08B3209F188F4803201F18D
:105A3000833221F157FC3AC020ED280F2A3040F57F
:105A400056FE1FC0929C200D1124922E06C08D324E
:105A500091F0803379F7689450F8F30193FD8591C4
:105A600093FF81913F018111DBCF20C0689451F8F1
:105A7000689452F8F2CF689453F8EFCF689454F8D2
:105A8000ECCF429C200D1124422E689455F8E5CFAE
:105A90008E3229F456FCF9C0689456F8DECF8C3665
:105AA00019F4689457F8D9CF8836B9F2982F9F7DAA
:105AB00095549330C0F08336A1F18337C1F183351B
:105AC00009F05BC0F801C190D1908F01692D70E0A1
:105AD00056FC02C06FEF7FEFC6010E94AB2E4C0157
